:020000040800F2
:10000000000003202903000831030008090200084A
:100010000D0200081102000815020008000000008F
:100020000000000000000000000000006502000861
:100030003D03000800000000FD0200080D03000859
:100040004303000843030008430300084303000878
:100050004303000843030008430300084303000868
:100060004303000843030008430300084303000858
:100070004303000843030008430300084303000848
:100080004303000843030008430300084303000838
:100090004303000843030008430300084303000828
:1000A0004303000843030008430300084303000818
:1000B0004303000843030008430300084303000808
:1000C00043030008430300084303000843030008F8
:1000D00043030008430300084303000843030008E8
:1000E00043030008430300084303000843030008D8
:1000F00043030008430300084303000843030008C8
:1001000043030008430300084303000843030008B7
:1001100043030008430300084303000843030008A7
:100120004303000843030008430300084303000897
:1001300043030008430300084303000800F002F8EB
:1001400011F0E4FF0AA090E8000C82448344AAF175
:100150000107DA4501D111F0D9FFAFF2090EBAE873
:100160000F0013F0010F18BFFB1A43F001031847EB
:100170008C320200CC3202000A444FF0000C10F81E
:10018000013B13F0070408BF10F8014B1D1108BF15
:1001900010F8015B641E05D010F8016B641E01F8B5
:1001A000016BF9D113F0080F1EBF10F8014BAD1C05
:1001B0000C1B09D16D1E58BF01F801CBFAD505E023
:1001C00014F8016B01F8016B6D1EF9D59142D6D37D
:1001D000704700000023002400250026103A28BFA5
:1001E00078C1FBD8520728BF30C148BF0B607047A9
:1001F0001FB521F0D8F89DE8030000F083FE01F060
:100200005FF800F04BFE1FBD102304E0202302E046
:10021000302300E040239C46F0B404AE7546E80865
:1002200001D3EFF309860E4F0FCE0FC70FBC0FC7D8
:100230004046494652465B460FC71DCE3100A60ACE
:1002400000D304316E0900D248311FC7EFF3098093
:100250006946EFF3148663C7604601491BF01EF838
:100260003C3000201EF0040F0CBFEFF30880EFF3CA
:100270000980816911F8021C91BB01B590E80F104B
:10028000E047BDE800508CE80300244B93E80600EB
:10029000914208BF704741B91EF0100F10D120499C
:1002A000086820F0010008600AE02CE9F00F1EF059
:1002B000100F08BF2CED108AC1F838C081F822E079
:1002C0001A6092F82210906B61F0FF0E1EF0100F72
:1002D00008BFB0EC108AB0E8F00F80F309887047CF
:1002E000104A13689942FAD801B552F821C00FC8D4
:1002F000E047BDE80050CCF80000704701B51CF0A5
:100300002BF9BDE80140EFF3098CBEE701B51CF005
:10031000CDFBBDE80140EFF3098CB6E78C0200206D
:1003200034EF00E07C220208064880470648004778
:10033000FEE7FEE7FEE7FEE7FEE7FEE7FEE7FEE795
:10034000FEE7FEE78D6600083D010008704711F0EA
:1003500005BF0844401E491E884370470821001D00
:10036000F7E72DE9F04117460E460446FFF7F6FF82
:10037000A042054633D9002F1CBF06F10C0011F036
:100380004FFF30467468F4B12168A94217D305F1D4
:10039000080291423CBF6168416007D362686119FD
:1003A0004A602268521B0A6041602560002F1CBF12
:1003B00006F10C0011F0B4FF201DBDE8F0812046CD
:1003C0006468002CE0D12946304600F087FD002803
:1003D000D7D1002F1CBF06F10C0011F0A1FF0020A7
:1003E000BDE8F08110B5044600F06FFD01682046BD
:1003F000BDE810400122B4E770B516460D46041F53
:10040000002808BF70BD002E1CBF05F10C0011F0C4
:1004100007FF2B465868002818BFA04238BF034684
:10042000F8D31968CA18A24218BF5C6003D12268C9
:100430001C461144196021680A19824218BF606085
:1004400004D142686260006808442060002E1CBF2E
:1004500005F10C0011F064FF70BD10B5044600F00A
:1004600034FD01682046BDE810400122C4E753EA8C
:10047000020C00F069802DE9F04B4FF00006002BD4
:100480001FBFB3FA83F503FA05F424FA05F65E40BC
:1004900012BF1643B2FA82F502FA05F4C5F120053F
:1004A0001EBF22FA05FC44EA0C04203556EA044C2F
:1004B0004FEA144418BF641C4FF000084FF00009C5
:1004C000904271EB030C39D3002919BFB1FA81F7BF
:1004D00001FA07F6B0FA80F700FA07F6C7F120072D
:1004E0001EBF20FA07FC46EA0C062037B6FBF4FCD8
:1004F000A7EB0507103F07F01F0BCBF120062CFAE6
:1005000006F60CFA0BFB44BFB3460026202FA4BF0F
:100510005E464FF0000B5BEA060C08BF4FF0010B84
:1005200019EB0B0948EB0608ABFB027C06FB02CC7F
:100530000BFB03CCC01B71EB0C01C1E70B46024661
:1005400041464846BDE8F08B13B5084318BF4FF04D
:10055000FF300146AFF30080BDE81C40704753EA0E
:10056000020C23D010B54C1084EA530404D5404249
:10057000C1F1000138BF491E1B4204D55242C3F1EC
:10058000000338BF5B1EFFF772FF14F0804F04D0EA
:100590004042C1F1000138BF491E14F0004F04D0A1
:1005A0005242C3F1000338BF5B1E10BD13B5404279
:1005B0004FF0000070EB0104B8BF012001F00041D2
:1005C00000281CBF6FF000414FF0FF30AFF30080F8
:1005D0001CBD70B5044685690068C10601D530268A
:1005E00000E02026C00707D070BDD4E901213046C5
:1005F0009047206A401C20626D1EF6D570BD70B514
:10060000044685690078C00707D170BDD4E901218F
:1006100020209047206A401C20626D1EF6D570BDD8
:100620002DE9FF5F1D464FF0FF3B91464FF000085C
:100630005F46D5E90146A96901987F1C8847296A68
:10064000824688470028F6D1BAF1FF3F0CD0002E31
:1006500024F4C06419DD600614D5BAF12B0F09D05B
:10066000BAF12D0F0ED103E0584604B0BDE8F09F5B
:1006700044F48064A96901987F1C8847761E8246ED
:10068000002E02DDBAF1300F03D0B9F1000F26D0F1
:1006900032E0A969761E01987F1C44F400748847F3
:1006A000002E824605DDBAF1780F06D0BAF1580F58
:1006B00003D0B9F1000F10D01EE0B9F1000F02D045
:1006C000B9F1100F18D1A969761E01987F1C24F486
:1006D000007488478246102002E0082000E00A20CB
:1006E000814609E0A96908FB0908761E01987F1C6C
:1006F00044F4007488478246002E05DD4946504682
:1007000000F038FC0028EDDAE96901988847A00577
:1007100002D46FF00100A8E7E00725D1600613D5E9
:10072000600502D5C8F1000000E0404629680A1DB6
:100730002A600968220501D5087015E0220701D555
:10074000088011E008600FE02868011D296000683A
:10075000210502D580F8008006E0210702D5A0F827
:10076000008001E0C0F8008038467EE72DE9FF5F99
:100770004FF000089946144646469169D2E901A710
:10078000DDF838B001988847054659EA0B0005D0D6
:1007900009E0A1690198761C88470546216A284628
:1007A00088470028F5D1681C03D05FEACA7005D0DD
:1007B00015E04FF0FF3004B0BDE8F09F2068011D48
:1007C0002160D0F800800AE05FEACA7001D108F821
:1007D000015BA169761C01987F1E88470546002FA2
:1007E0001ADD681C18D0B9F1000F0DD0E81705EB21
:1007F000D060421120F01F0059F822102A1A01205F
:1008000090400142E0D107E0BBF1000FDCD1284667
:10081000216A88470028D7D0E16901988847BBF151
:10082000000F07D1002E05DD5FEACA7002D100215A
:1008300088F80010A068B84203DDBBF1000F03D0B8
:1008400017B16FF00100B6E73046B4E72DE9F0418B
:10085000044616460D464769007B80072ED0384671
:1008600011F006FE50BB3EB3012E02D0022E25D160
:1008700004E0204600F066F805441DE0384611F01B
:10088000E3FDE168002841F01001E16005DA20464F
:1008900000F06AFC0120BDE8F081C9030BD5626855
:1008A000E16A914200D81146A26911442269891A6D
:1008B000814200DD08460544002D01DA0220EAE706
:1008C000E16A6068E268814206D29103E06203D582
:1008D00022F4003141F01002A6690027AE4213DC79
:1008E000E16A814201D90B4600E0034603EB060CA6
:1008F0002369ACEB030CAC4506DD814201D98C4683
:1009000000E084469C4505D1A760276042F02000A6
:10091000A5620DE0AD1BE669AE1B8142A66000D961
:100920000846C01A281A20605819606022F020007A
:1009300003490840E060002084F84870ABE70000FD
:10094000BFCFD7FF10B50146C268900703D090060D
:1009500007D5886A0AE0FFF7FAFC01210160881ECA
:1009600010BD8B69486818440B69C01A91F848306B
:100970001BB191F84910401A10BD1103FCD5002895
:10098000FADD401E10BD2DE9F04704464FF0000986
:100990004FF0FF37C568D4E90486A80707D0204682
:1009A00000F016FC304611F049FD002802DA384606
:1009B000BDE8F087280502D54046FFF74EFD4C21E3
:1009C000204600F001FA206D20F001002065484625
:1009D000EEE770B50C46064601F14C05284611F0CD
:1009E0001FFC2146304620F0D1FC0446284611F079
:1009F00097FC204670BD00002DE9F041044600F14F
:100A00004C07384611F00CFCE068810712D08006D4
:100A100001D5A66A04E0A169606808442169461A04
:100A2000204600F0D5FB0022054631462046FFF760
:100A30000DFF00E00025384611F072FC2846BDE8A5
:100A4000F0812DE9F04118B1BDE8F041FFF7D4BFC6
:100A50000B4E0025304611F0E3FB0A4C6F1E07E0F9
:100A60002046FFF7C9FF00B13D46206D20F001048C
:100A7000002CF5D1304611F053FC2846DFE700008A
:100A80004C010020400300202DE9F047164688461F
:100A9000070010D006F14C00814611F0C1FB304632
:100AA000FFF771FF18F8010B61280DD0722805D0EF
:100AB000772841D105E00020BDE8F087012500241A
:100AC00005E00225042402E0082448F2020518F893
:100AD000010B2B2806D0622809D018F8010C7428C5
:100AE0000AD00BE045F0030544F00204EFE745F0BF
:100AF000040544F00104EAE744F0100438462146B6
:100B000011F0BAFC411C17D00021316171604FF423
:100B10000071F560F1617061200704D53046022252
:100B20000021FFF793FE306D40F00100306548462C
:100B300011F0F6FB3046BFE70026F8E72DE9F0415B
:100B400015460E460746214C204611F069FB2A4601
:100B500031463846FFF798FF0546204611F0E0FB86
:100B60002846BDE8F0812DE9F0410E468046174D3C
:100B7000284611F055FB164C206DC10704D04108E2
:100B800004D020F00104F7E7224612E05420FFF7DA
:100B900029FC070017D0206D47F0010108435421BC
:100BA0002065384600F010F907F14C0011F066FBA3
:100BB0003A4631464046FFF767FF0446284611F0A3
:100BC000AFFB2046CDE70024F8E700004C010020F1
:100BD0004003002030B503461D783DB10A4612F8A7
:100BE000014B1CB1AC42FAD15B1CF5E7181A30BDC1
:100BF00040EA010310B59B070FD1042A0DD310C89A
:100C000008C9121F9C42F8D020BA19BA884201D9EB
:100C1000012010BD4FF0FF3010BD1AB1D30703D033
:100C2000521C07E0002010BD10F8013B11F8014BE9
:100C30001B1B07D110F8013B11F8014B1B1B01D105
:100C4000921EF1D1184610BD10B5431C02E010F8F9
:100C5000011B71B18107FAD14FF0013202C88C1A21
:100C60008C4314EAC211F9D0C01A0A0603D0C01E80
:100C700010BDC01A10BD0A0401D0801E10BD0902AB
:100C8000FCD0401E10BD032A40F2308010F0030C4F
:100C900000F0158011F8013BBCF1020F624498BFCF
:100CA00011F801CB00F8013B38BF11F8013BA2F16C
:100CB000040298BF00F801CB38BF00F8013B11F0E7
:100CC000030300F02580083AC0F0088051F8043B87
:100CD000083A51F804CBA0E80810F5E7121D5CBFF4
:100CE00051F8043B40F8043BAFF30080D20724BF27
:100CF00011F8013B11F801CB48BF11F8012B24BFBB
:100D000000F8013B00F801CB48BF00F8012B704709
:100D100010B5203AC0F00B80B1E81850A0E8185088
:100D2000B1E81850A0E81850203ABFF4F5AF5FEAD8
:100D3000027C24BFB1E81850A0E8185044BF18C97D
:100D400018C0BDE810405FEA827C24BF51F8043B24
:100D500040F8043B08BF7047D20728BF31F8023B78
:100D600048BF11F8012B28BF20F8023B48BF00F80C
:100D7000012B704702F0FF0343EA032242EA0242DA
:100D800000F024B84FF000020429C0F0128010F0E7
:100D9000030C00F01B80CCF1040CBCF1020F18BF57
:100DA00000F8012BA8BF20F8022BA1EB0C0100F0EA
:100DB0000DB85FEAC17C24BF00F8012B00F8012BBD
:100DC00048BF00F8012B70474FF0000200B51346F2
:100DD00094469646203922BFA0E80C50A0E80C505B
:100DE000B1F12001BFF4F7AF090728BFA0E80C500C
:100DF00048BF0CC05DF804EB890028BF40F8042B05
:100E000008BF704748BF20F8022B11F0804F18BF71
:100E100000F8012B7047000030B44FF0013C50F84F
:100E2000042B51F8043BCCFA52F4D51A20D1FCB96A
:100E300050F8042B51F8043BCCFA52F4D51A17D1D0
:100E4000B4B950F8042B51F8043BCCFA52F4D51A3B
:100E50000ED16CB950F8042B51F8043BCCFA52F483
:100E6000D51A05D1002CDAD030BC4FF00000704705
:100E700029BAB1FA81F111F01801D1F120008440B2
:100E8000F2D1CA40CB4012F0FF0213F0FF0330BC96
:100E9000D01A7047704770477047000070B5064C15
:100EA0007C44064D7D4404E02046016808448047A8
:100EB000241DAC42F8D170BD982502009C2502008B
:100EC000004870473C040020704710B5FFF7F8FF5A
:100ED000083010BD704770477047704738B50446FA
:100EE0000A4600206946AFF30080002808BF38BDDD
:100EF00002460099204600F0D9FA012038BD0120B1
:100F000000F024BBF8B5AFF30080054600200C4686
:100F1000102000BF0646A819A0420DD932466946E6
:100F20000020AFF30080070008BF00F00FFB00981F
:100F3000A04218BF0546C419FFF7C7FF0560074662
:100F4000F01D20F007004619284600F00AF8B442C8
:100F500008BFF8BDA21B31463868BDE8F84000F074
:100F6000A5BA00210160C0E901100C3011F086B96A
:100F7000102070473A2800D2303820F02002412A51
:100F800001D3A2F13700884201D34FF0FF30704700
:100F90002DE9F04705460C46C86820F4201040F4BF
:100FA0008000C860800602D5084600F034F9E06889
:100FB00041F282014FF0FF390140022903D020465F
:100FC00000F0D2F8B5E000F42041B1F5004F0FD1A8
:100FD000C00306D56168E06A884200D808466060B0
:100FE00006E02069E0626060606911F02DFAA0619E
:100FF000A0680022EEB200280DDAE1688B050AD461
:10100000C043A06041F490302260E0606068411C01
:1010100061600670A5E0E0689046226040F40050F0
:10102000E060206968BB606911F022FA012704F1D1
:101030002405A0B1A08910F4407F08D0E069FFF733
:10104000D1F9206118B1E06840F4006016E0E76172
:101050002561E06820F4407040F480600EE0E069B3
:10106000FFF7C0F900282061F1D0E06840F400608B
:1010700010F4407FE06002D140F48070E0602069AD
:101080006060E06825696FF0010AC1051FD56168DD
:10109000E06A884200D80846411B04D02246284610
:1010A00000F06CF8F0BBE068010203D5E562C4E92A
:1010B000015854E0691CE1626160E16940F48030EC
:1010C000491EC4E9021030462E70BDE8F0870102C7
:1010D00002D500F480320AE06068411C616006704D
:1010E000E0680A2E40F48030E06006D00022E16A19
:1010F0006068814203D90B4602E00122F7E703460C
:10110000A7895B1B7F0503D4E7699F4200DDE2B13D
:10111000814200D80146E5620F1AC4E90158002B4C
:1011200009DD00E005E022461946284600F026F8D1
:1011300008B14846C9E747B1A069E5626560C01BD0
:10114000A061E06840F01000E060E068000208D5AF
:101150006168A069E562491B08446560A06150466A
:10116000B3E73046B1E70000C16821F4001141F057
:101170008001C16000218160016070472DE9F04766
:10118000814614460E464FF0FF383248D5685769FD
:10119000054209D03846A16911F0A4F9002811DBF5
:1011A0002C48C0430540E5602B4632464946384648
:1011B00011F09EF9A16920F00042B21A11440028F2
:1011C000A16103D02046FFF7CFFF4046BDE8F0877E
:1011D00070B504460569C06A6168884200D808464F
:1011E000E16821F42011E160C90312D5A84208D0BA
:1011F0002246411B2846FFF7C1FF10B14FF0FF30D8
:1012000070BD0020E562C4E90150E06820F4803040
:10121000E060002070BD10B50446C06820F02000DA
:10122000E060A16AA06988420DD02046FFF7D0FF98
:10123000E06820F4405040F01000E060A06AA06137
:101240002069E062606044F24001E0688843E06049
:1012500010BD0000100002002DE9F04704461E46B4
:1012600090460D46C7684C30814610F0D9FFB8074C
:1012700014D0780212D44046B8F5807F09D0B0F57A
:10128000007F06D0B8F5806F08D1012604F124054F
:1012900006E0701E6FF07F41884201D3012409E00F
:1012A0002561E6616560E06820F4706040EA08004E
:1012B000E0600024484611F033F82046BDE8F0878E
:1012C00010B565485421FFF77FFD64485421FFF7AE
:1012D0007BFD63485421FFF777FD62485E49624A0F
:1012E000624B01605D4810605D4A1A60431C0B65EB
:1012F000511C01650120106557484C3010F0BEFFAD
:1013000056484C3010F0BAFF55484C3010F0B6FF3C
:10131000574810F0B3FF58484F4A56A17844FFF79A
:101320000DFC20B9544878440A3800F008F95448B4
:101330004A4A52A17844FFF701FC20B9504878444A
:101340000A3800F0FCF84F48454A4CA17844FFF7B2
:10135000F5FB20B94B4878440A3800F0F0F84023F8
:101360003D48DC0000212246FFF776FF20B14248CD
:101370007844543800F0E3F83848224640230021EE
:10138000FFF76AFF20B13E487844543800F0D7F8A0
:101390003348224610230021FFF75EFF002806D0C5
:1013A00038487844BDE81040563800F0C8B810BD41
:1013B0002B482DE9F041006D2D4E20F00104304600
:1013C00010F02EFF244D4C35284610F029FF2248FE
:1013D000FFF7D9FA284610F0A3FF284610F02EFF99
:1013E0001E4D4C35284610F01BFF1C48FFF7CBFA6A
:1013F000284610F095FF284610F020FF184D4C3578
:10140000284610F00DFF1648FFF7BDFA284610F0E9
:1014100087FF284610F012FF14E0206D20F0010530
:1014200004F14C00074610F0FBFE2046FFF7ABFA34
:10143000384610F075FF384610F000FF2046FFF7E1
:101440000CF82C46002CE8D1304610F069FF084813
:1014500010F0F4FEBDE8F08140030020940300206A
:10146000E803002040010020440100204801002042
:101470004C01002072000000BF090200770000004C
:10148000AE0902008709020010B5002000F050F8F4
:10149000AFF30080BDE81040012010F0D3BF801AE8
:1014A0000844401E491E88431044704770B51446D6
:1014B00005468C464368002B18BF634538BF184665
:1014C000F8D302681044604508D06646604604229E
:1014D0000821FFF7E4FF811B8446641A2946CCF8F3
:1014E0000040BDE8704000220CF10400FEF784BF0C
:1014F00070B504460D4D284610F092FE03E01FF033
:1015000045FF401C0ED0094914F8010B4C39002846
:10151000F5D10A201FF03AFF0446284610F000FFDC
:10152000204670BD4FF0FF34F7E70000E0030020D5
:1015300010B500F01FF8BDE8104000F016B810B567
:1015400000F030F8BDE8104000F00FB810B500F022
:1015500043F8BDE8104000F008B810B5FFF7B5FC3F
:101560000068BDE8104000F05FB8002801D010F01E
:1015700069BF704710B5002102A000F05AF80120A1
:1015800010BD0000534947414252543A2041626E17
:101590006F726D616C207465726D696E6174696FD4
:1015A0006E00000010B5014602A000F042F80120D4
:1015B00010BD000053494752545245443A205265E9
:1015C0006469726563743A2063616E2774206F707A
:1015D000656E3A200000000010B5012805D00021FA
:1015E00003A000F026F8012010BD09A1F8E70000D3
:1015F00053494752544D454D3A204F7574206F66FC
:101600002068656170206D656D6F72790000000063
:101610003A2048656170206D656D6F727920636F47
:10162000727275707465640010B50C3010F006FEAF
:1016300010BD70B505460C460A2000E06D1C11F087
:101640002FF835B128780028F8D102E0641C11F099
:1016500027F814B120780028F8D1BDE870400A209E
:1016600011F01EB883B080B583B0844605A840F25F
:10167000943E0EC005ABC2F2000E00206FF0004198
:1016800062460293CDF800E019F0BCFE03B0BDE85D
:10169000804003B07047000080B582B013460A4610
:1016A000844600206FF00041CDF800C019F0AAFE7A
:1016B00002B080BD80B54FF6004243F6B06143F6FC
:1016C000A860C2F20202C2F20001C2F2000091421E
:1016D00018BF08464FF60041C2F2020118BF11467A
:1016E000FEF786FD80BD0000002070470020704797
:1016F000002070470020704700207047002070478E
:1017000080B582B04FF0000CCDF800C019F07AFE21
:1017100002B080BD4EF69851CEF200010860002064
:10172000886070474EF69C52CEF200021060516005
:101730007047000042F66C01C2F200010865704774
:1017400080B589B391F90200B0F1FF3F08DDC0B266
:1017500060280ED342F66C00C2F20000806B17E0E6
:1017600042F66C00C2F20000026C002A08BF80BD85
:101770000FE0402805D342F66C00C2F20000C06BB7
:1017800006E0202808D342F66C00C2F20000406B4D
:1017900082680846904780BD42F66C00C2F20000A5
:1017A000006B82680846904780BD000080B542F615
:1017B0006C01C2F2000181F8540041F6F84042F297
:1017C0003002C0F60200C0F60202C1E90C00C1E915
:1017D0000E2242F6ED1142F6A512C0F60101C0F646
:1017E0000102042003F092F942F6D501C0F601018E
:1017F000002000F015FC80BD1B296FF00A0202D00A
:101800001D2918BF002280B5104405F02FFE80BDB1
:1018100010B582B040F21C31C2F20001096842F6F4
:101820006C02C2F200028C88D06402F081F90438A4
:10183000A04207DA0024002077210022022300942E
:1018400011F090F802B010BD10B5013880B200213F
:1018500011F038F9D0B104460068807800F0120029
:10186000102813D1092011F0E5F8002808BF10BD99
:10187000034620680122817801F0EF0181701E206B
:10188000187220680189042003F094F810BD00004C
:10189000B0B542F66C0CC2F2000C42F6C4009CF8E3
:1018A00054E0C2F2000000210122C0F82C1180F89F
:1018B000302100BF0CEB011201310023002400BFD6
:1018C000C518C2502C3385F82840582B04F1010468
:1018D00085F824E0A98385F82910F1D1032900F1C6
:1018E0005800E7D141F61450C0F60200CCF83000A1
:1018F000B0BD0000B0B582B004460B200D4611F01B
:1019000099F870B103460320188002201872280A43
:101910005D7298720025204600210122009511F089
:101920007FFC02B0B0BD000042F6C40041F6AC51ED
:10193000C2F20000C0F60201C0F82C11704700008E
:1019400010B5044605F056FE42F6F81CC2F2000C33
:10195000DCF8201169B1238A0A8A934202D200225C
:1019600008E000BF0A46096821B1088A8342F9D21B
:1019700000E000220CF59070214605F0D9FD012011
:1019800012F080F805F052FE10BD000042F6F8118A
:10199000C2F20001C1F830017047000080B511F0BB
:1019A000B9FE80BD2DE9F0410C46064611F084FEDB
:1019B00048B30546F4B142F63038C2F2000898F850
:1019C000140000B300270AE0013798F81410F8B2A9
:1019D0000234884205F1020528BFBDE8F081208865
:1019E00028802388002BEFD0F9B23046002211F076
:1019F00079FEE9E742F63030C2F20000007D410096
:101A00002846FFF7BFF9BDE8F081000042F6303309
:101A1000C2F200031875C3E9031242F6F81043F24C
:101A20004D71C2F20000C0F60101C0F834117047D8
:101A300042F64831C2F2000101EB400010F8010CFF
:101A400070470000012A88BF704780B542F64833CE
:101A5000C2F2000303EB4000831E08461946FFF75D
:101A600012F9BDE88040704740B142F64832C2F2F8
:101A7000000202EB400000F8011C10E042F6483C76
:101A80006FF00100C2F2000C0CEB0003DA780230B8
:101A9000022A0A4608BF01220428DA70F4D17047EE
:101AA00080B513F015FC006880BD000080B542F6DB
:101AB0006C00C2F2000042F6F81C90F854E0C2F24A
:101AC000000C0022634600BF01326FF01F0100BF0F
:101AD00058182C31382980F82CE08284F8D1032A58
:101AE00003F15803F0D141F6C450C0F60200CCF81F
:101AF000280180BD80B542F6F811C2F2000141F61E
:101B0000F84242F65D1342F66C0C0020C0F6020269
:101B1000C0F60103A1F12C0EC2F2000CC1E948008D
:101B2000C1E94A230CEB001301300022714600BFCB
:101B300081F851200132CB6381F85000022A01F173
:101B40002C01F5D103280EF1580EEBD141F6B4501B
:101B5000C0F60200CCF8340080BD000010B5044689
:101B600005F048FD42F6F810C2F20000D0F820114E
:101B700071B10A8AA24201D1002205E00A46096831
:101B800031B10B8AA342F9D100F5907005F0FEFC4B
:101B9000012011F077FF05F049FD10BD70B582B04E
:101BA00015460C46064605F025FD01A9304612F003
:101BB00081F828B106468089A04203D20D240CE0AA
:101BC0000A240AE0706829462246FFF75CF8B07BD9
:101BD000000744BFB0680480002405F027FD2046BC
:101BE00002B070BDB0B514460D4613F071FB4560F0
:101BF0000473B0BD10B50C4613F06AFB046010BD51
:101C000042F65830C2F200000021C0E90C1142F641
:101C1000F81045F2E121C2F20000C0F60101C0F85F
:101C20002C1140F2C81044F68171C2F20000C0F6D7
:101C300001014164704700000022014682800630A5
:101C40000A60704780B50622FEF7D2FFB0FA80F036
:101C5000400980BD8A888280096801607047000061
:101C600080B582B00021ADF80410009169460622CB
:101C7000FEF7BEFFB0FA80F0400902B080BD000060
:101C8000D1F800C04B68CA688968C260816043604F
:101C9000C0F800C0704700004A68096842600160EF
:101CA0007047000001390138102200BF11F801CF40
:101CB00010F8013F013A8CEA030C130680F800C0CB
:101CC000F4D170474EF60450CEF200004FF00061A0
:101CD0000160704780B580B140F2EC40C2F2000074
:101CE0000121017040F25450C2F200000168002945
:101CF00008BF80BD0120884780BD40F25450C2F229
:101D00000000016809B10020884740F2EC40C2F2AF
:101D100000000021017080BD80B5002003F070FD3F
:101D2000002808BF80BD807903F086F980BD0000DF
:101D300080B5042005F074FB002808BF80BD014673
:101D400042F6E030C2F20000007B05228A7005F006
:101D500093FB80BD80B505F04DFC40F2102041F6AC
:101D60003461C2F20000C0F60201016013F0D2FF3C
:101D700042F6E440C2F2000000210160002002F0BF
:101D800065FD05F053FC80BD70B506460C200D4680
:101D900005F046FB002808BF70BD04460620A07071
:101DA000601D29462671FFF755FF42F6E030C2F26A
:101DB0000000007B214605F05FFB70BD2DE9F0417E
:101DC00007461220984615460E4605F029FB0028C6
:101DD00008BFBDE8F0810146022088700F717FB115
:101DE000002000BF325C0B185A7135F8102001EB4F
:101DF0004004228118F80020013087429A73F1D103
:101E000042F6E030C2F20000007B05F035FBBDE891
:101E1000F0810000B0B5044608200D4605F000FB37
:101E2000002808BFB0BD0146032088700C713CB18A
:101E3000081D6A1E12F8013F013C00F8013FF9D16C
:101E400042F6E030C2F20000007B05F015FBB0BDA9
:101E5000B0B586B094460A46DDE90A1E0C9C012501
:101E6000CDE9003100216346CDF808E004950394E4
:101E700014F0EAFA06B0B0BD10B5044605F0BAFB9E
:101E800042F6044104EB4400C2F2000101EB0010F1
:101E900030F8224C05F0CAFB204610BD70B5044650
:101EA000242015460E4605F0BBFA002808BF70BD79
:101EB00001461920887042F6E030C2F20000007B33
:101EC0000E800D71CD704C7105F0D6FA70BD00001A
:101ED00042F60441C2F200010C31032207E000BFC8
:101EE000013A130601F1300104BF002070478B7ADC
:101EF000002BF5D00B888342F2D10879704700009F
:101F000042F6044100EB4000C2F2000101EB001078
:101F100010F81A0C7047000080B505F06BFB40F21A
:101F2000102041F6946141F64062C2F20000C0F612
:101F30000201C0F60202C0E9031241F61071C0F6B8
:101F40000201816342F6F83041F64C61C2F20000B2
:101F5000C0F60201016042F6D84041F6FC61C2F2CF
:101F60000000C0F60201016005F060FB80BD0000CA
:101F700042F6044100EB4000C2F2000101EB001008
:101F80002A38704742F6044100EB4000C2F20001DB
:101F900001EB001010F81C0C7047000042F60441E1
:101FA00000EB4000C2F2000101EB00101638704750
:101FB00080B505F01FFB42F6F83041F66C61C2F2C5
:101FC0000000C0F60201416042F6D84041F60071BF
:101FD000C2F20000C0F60201416005F027FB80BD9F
:101FE00042F6044100EB4000C2F2000101EB001098
:101FF0003038704742F6044100EB4000C2F2000165
:1020000001EB001010F81D0C7047000042F604416F
:1020100000EB4000C2F2000101EB001010387047E5
:10202000B0B50C46054605F0E5FA42F60440C2F2AA
:10203000000000EB8500C0F8904005F0F7FAB0BD55
:1020400042F6044100EB4000C2F2000101EB001037
:1020500010F8170C7047000042F6044100EB4000F6
:10206000C2F2000101EB001010F8190C70470000DB
:1020700070B516460C46054605F0BCFA2846FFF733
:102080003FFF68B142F6044105EB4500C2F2000192
:1020900001EB00103EB130F8221C214320F8221C35
:1020A00005F0C4FA70BD30F8221CA14320F8221CB0
:1020B00005F0BCFA70BD000080B505F09BFA42F651
:1020C000F83041F68461C2F20000C0F6020181607E
:1020D00042F6D84041F60871C2F20000C0F6020193
:1020E000816005F0A3FA80BD80B5042005F098F961
:1020F000002808BF80BD014642F6E030C2F2000071
:10210000007B38228A7005F0B7F980BD80B50A4699
:102110000146002014F048FC80BD000010B50446C4
:1021200042F6E030C2F200002146FFF793FD204660
:1021300002F0FAF910BD000080B505F05BFA40F23C
:10214000102041F62861C2F20000C0F602010160D1
:1021500041F68C71C0F60201816214F001FF15F0A6
:1021600083FA42F6E44044F2FD11C2F20000C0F6E8
:1021700000010160002002F05DFB4FF4405000219F
:10218000012202F027FB05F051FA80BD80B505F071
:1021900031FA42F6F83041F66461C2F20000C0F64E
:1021A0000201416042F6D84041F60071C2F20000DF
:1021B000C0F60201416005F039FA80BD80B505F036
:1021C00019FA42F6F83041F67461C2F20000C0F626
:1021D0000201816042F6D84041F60871C2F2000067
:1021E000C0F60201816005F021FA80BD80B505F0DE
:1021F00001FA40F2102041F6BC71C2F20000C0F6B4
:102200000201816015F054FD15F03CFF05F00EFA57
:1022100080BD000010B5D1B192F800E04FF0000C85
:10222000BEF1000F11D08BB273450ED9144614F8CD
:10223000013F9446834208D06FEA0E0211440A041B
:1022400004EB0E02E8D14FF0000C604610BD0020F8
:1022500010BD000080B599B142F6E030C2F2000036
:10226000007C002818BF80BD88787C2202EA5000DC
:1022700040F21022C2F200021058826808469047CD
:1022800080BD000080B542F6E031C2F20001087363
:102290000020C875087447F2DD40C0F6010001F067
:1022A00023FC80BD42F6E031C2F20001C97D002965
:1022B00008BF7047022804BF00207047032808BFEA
:1022C0000120704780B50146032015F021F980BD3B
:1022D00080B582B0ADF8041042F60441C2F20001AC
:1022E000D1F89C107622ADF806006846ADF80220C1
:1022F000884702B080BD000010B582B00C4613F0D4
:10230000C3FF38B173218DF802106946ADF804405F
:1023100014F074FA02B010BDB0B584B0054608469A
:10232000144613F0B1FF40B172218DF8061001A9D7
:1023300002948DF80C5014F061FA04B0B0BD0000A6
:1023400042F6E031C2F20001C97D002908BF7047A2
:10235000002804BF02207047012808BF03207047EF
:1023600010B50446062005F05BF8002808BF10BD34
:1023700001465220887042F6E030C2F20000007B35
:102380000C7105F079F810BD10B50446062005F073
:1023900047F8002808BF10BD01465320887042F658
:1023A000E030C2F20000007B0C7105F065F810BD52
:1023B00080B505F01FF940F2102041F69871C2F285
:1023C0000000C0F6020141624FF4106000210122BA
:1023D00002F000FA05F02AF980BD00002DE9F04373
:1023E00081B004462C20984616460F4605F018F892
:1023F000F0B10546DDE908903121A9702880681DFB
:1024000039462C71FFF726FC05F10B003146FFF72A
:1024100037FC05F11B004146FFF732FC42F6E03085
:10242000C2F20000007B294685F82B9005F024F8C5
:1024300001B0BDE8F083000080B505F0DBF840F2A4
:10244000102041F6B071C2F20000C0F602018161B5
:1024500041F6A471C0F60201C16305F0E7F880BD42
:1024600010B59AB040F21021C2F20001096A41F69B
:10247000287242F6E034C0F60202C2F20004914231
:10248000A0600AD001F054FB442806D80020C0F216
:102490007710A168019001A888471AB010BD00000C
:1024A000B0B5054610200C4604F0BAFF002808BF5E
:1024B000B0BD0146222088700D8020686268A36844
:1024C000486042F6E0308A60CB60C2F20000007BD8
:1024D00004F0D2FFB0BD000080B505F08BF840F2EB
:1024E000102041F6C871C2F20000C0F602018160FE
:1024F00015F0DEFB05F09AF880BD000080B515F000
:10250000FFFB80BD10B5044605F074F842F6E030DC
:10251000C2F20000C47305F089F810BD2DE9F04344
:1025200081B091460D46064600274FF00108002075
:10253000002400BF08FA07F3334207D035F8101023
:1025400039F81020D8B215F001FC0134062F04D858
:10255000E0B2032807F10107ECD301B0BDE8F08336
:102560002DE9F04381B0074610209846164689466B
:10257000102404F055FF30B3DDE908EC0146847007
:102580000771431D00200024002200BF27FA00F538
:10259000ED0702D0355D01321D55D4B2022C03D8AF
:1025A000072800F10100F1D342F6E030C2F200004A
:1025B000007B81F80890A1F80AE0A1F80CC081F82E
:1025C0000E8004F059FF01B0BDE8F08380B504200F
:1025D00004F026FF002808BF80BD014642F6E03027
:1025E000C2F20000007B11228A7004F045FF80BD1A
:1025F000F0B581B00746162015460C4604F010FFD2
:1026000068B106460420B0703780347525B1301D9E
:1026100029462246FEF737FB304603F021FE01B083
:10262000F0BD0000B0B5054604200C4604F0F8FEED
:10263000002808BFB0BD032181700580C47003F07D
:102640000FFEB0BDF0B581B00746202016460C46FF
:1026500004F0E6FE88B105462820A870281D314602
:102660001A222F80FEF70FFB42F6E030C2F2000084
:10267000007B2946AC7704F0FFFE01B0F0BD0000FE
:10268000C0684DF6836100BAC4F21B31A0FB011291
:10269000910C43F609525143A0EB811070470000A2
:1026A00042F6D070C2F200007047000042F6685057
:1026B000C2F200004068704742F66850C2F2000063
:1026C0000068704740F2102041F6D471C2F2000059
:1026D000C0F60201416142F6685041F6E651C2F28D
:1026E0000000C0F60201C0E90011704740F210205E
:1026F00041F6E071C2F20000C0F6020101627047CB
:102700002DE9F04104461620984616460F4604F07F
:1027100087FE002808BFBDE8F08105462920A87083
:102720002C802F756E751FB1281D4146FFF7A8FA42
:1027300042F6E030C2F20000007B294604F09CFE25
:10274000BDE8F081F0B581B0074608201C4615466B
:102750000E4604F065FE68B106990122827004F00D
:10276000070201F007010780067145718271C1718E
:1027700003F076FD01B0F0BDF0B581B0074608204A
:102780001C4615460E4604F04BFE68B1069902221F
:10279000827004F0070201F007010780067145719D
:1027A0008271C17103F05CFD01B0F0BD80B50146DE
:1027B00042F6D070C2F200006022FEF764FA80BDDB
:1027C000B0B5054606200C4604F02AFE002808BFD6
:1027D000B0BD052181700580047103F041FDB0BDDD
:1027E00010B5044680782C2801D02A2808D142F65A
:1027F0000440C2F20000D0F8901009B1204688478A
:1028000042F6E030C2F2000081682046884710BDE1
:10281000B0B514460D4613F04FFD002808BFB0BDFB
:1028200000218289817441F6E6510576C0F60201E5
:1028300010460022234601F0D1FEB0BD80B59307BB
:1028400006D4D20700F10C0015D10FF065FF80BD52
:10285000C36802F0010203EA010040EA020C884268
:10286000184618BF0020002A08BF1846BCF1000F08
:1028700008BF604680BD0FF027FF80BD80B50C30DB
:1028800010F004F880BD000080B540F23712C8F2A5
:1028900001021EF097FB80BD80B540F23112C8F2F4
:1028A000010201461EF08EFB80BD000080B540F2A3
:1028B0003812C8F201021EF085FB80BD80B540F2DF
:1028C0003312C8F201021EF07DFB80BD11F111022E
:1028D00008BF704780B540F23412C8F201021EF002
:1028E00071FBBDE88040704780B540F23212C8F2FB
:1028F00001021EF067FB80BD80B51AF0BDF91EF025
:1029000083FA80BD4EF60450CEF20000006810211C
:1029100001EA10607047000080B502F027FA80BD20
:1029200080B502F02DFA80BD80B502F033FA80BD8B
:1029300044F2244043F6BE23C4F20100C2F2000375
:1029400043F6BC2C02681988C2F2000CBCF80000E7
:10295000511A10FA81F1B1F57A7F1A8012D3A1F5DC
:102960007A7044F6D351C1F26201A0FB01124FF616
:1029700018439109CFF6FF7301FB0301012000EB1F
:10298000921200E0002243F60453C2F200031868DA
:10299000ACF80010104418607047000040F23C3062
:1029A000C2F200000068704780B5032000F0AEF866
:1029B0000F2000F009F800281CBF012080BD00F0A6
:1029C0009FF8002080BD000080B517F003FE0020B6
:1029D00080BD000010B50446022084F8360060680F
:1029E000012808D0A06AB0F5000F04D12068C268A1
:1029F00022F46062C2602068026942F00102026152
:102A00001022426081612046102102F0CBFD032894
:102A100004BF032010BD2068016941F00401016179
:102A2000012084F83600002010BD0000002804BFFB
:102A3000012070472DE9F041044690F8360028B98E
:102A4000002084F83500204600F058F8022084F871
:102A50003600D4E900C2DCF80C30012A02D123F0A0
:102A60001E0305E0A06AB0F5000F08BF23F01E03A7
:102A7000A168D4F814E0D4E908564FF6FF7741F284
:102A80003818BE454FF2F81741EA0201A06ACFF6A6
:102A9000197818BF03EA0803CFF6197729433B409A
:102AA00031431943012A41EA000218BFB0F5000F73
:102AB00004D1D4E90301104340EA01024FF6FF704C
:102AC000864506D0D4E9060142EA0E02104340EAE8
:102AD000010247F60040CCF80C20C4F20000E16A85
:102AE000844502D0CCF8201002E0226B1143016231
:102AF000012084F836000020BDE8F0817047000016
:102B00007047000080B50FF01DFA80BD80B50FF052
:102B100049FA80BD40F20040C5F6000001684DF65C
:102B2000836221F48041016040F25011C2F2000141
:102B30000968C4F21B32A1FB0212910C6FF0310242
:102B4000514300BF426921B112F4007201F1010149
:102B5000F8D140690321800501EAE0707047000068
:102B600040F20040C5F60000016841F48041016078
:102B70007047000040F20040C5F60000006800F415
:102B8000C060704740F20040C5F60000016841F4A3
:102B9000807101607047000010B50C4640F214418E
:102BA000C5F600010968002801F4007004D000286F
:102BB00008BFFFF7D5FF05E020B1FFF7ABFF002806
:102BC00018BF10BD4EF61050CEF200000168012C67
:102BD00021F00401016004BF30BF10BD40BF20BF21
:102BE00020BF10BDF0B581B004460078400602D485
:102BF000002500261EE0206B6FF0010101EBB051B3
:102C0000022913D34FEAB050002842D0012847D1FF
:102C10000C20C5F600000168002641F480310160F7
:102C20003EB9206B02F004FC002503E00026002ED4
:102C3000F7D03546607800073AD502F0B9F9216C33
:102C4000884234D00546FFF79DFF6DB30C25C5F6CD
:102C50000005D5F8847002F07BF902F055FB206C7A
:102C600027F440710843C5F8840002F075FA012882
:102C70001DD1FFF75DFE054641F2893702F07CFA6F
:102C8000012814D0FFF754FE401BB842F6D30325A9
:102C90000EE0201D02F0C8FD0646002EC9D1C0E797
:102CA0000126002EC5D1BCE7206C02F0B7FB3546EB
:102CB0002078C00702D0A06902F0E2FB20788007EC
:102CC00002D5E06902F08CFB2078C00602D5A06A2C
:102CD00002F078FB2078800602D5E06A02F072FBF1
:102CE0002078400702D5206A02F05CFB20780007BC
:102CF00002D5606A02F056FB6078C00717D0606B9F
:102D000002F0C8FB606BB0F1806F0AD0B0F1006FC9
:102D10000DD10C20C5F60000016841F08071016002
:102D200005E0201D02F0BCFD002818BF05466078B4
:102D3000800713D5A06BB0F1004F18BFB0F1804FE2
:102D400021D102F061FBA06BB0F1C05F06D10C2075
:102D5000C5F60000016841F08071016060784007AD
:102D600022D5E06B02F0D8FAE06BB0F1805F15D0AD
:102D7000B0F1005F18D10C20C5F60000016841F4E5
:102D80008031016010E00028DBD020F08056002068
:102D900002F03AFB304602F0F3FAD4E7201D02F0CD
:102DA000BBFD002818BF05466078C00602D5606CE0
:102DB00002F020FB6078800605D5E06C02F04CFB49
:102DC000A06C02F03FFB284601B0F0BD2DE9F041B8
:102DD000002800F0BF8044F20007C5F60007054652
:102DE00038680C4600F00700884214D2386820F09A
:102DF000070020433860FFF79BFD0646386800F067
:102E00000700A04207D0FFF793FD801B0228F5D9E9
:102E10000320BDE8F081287880072CD4287880062C
:102E20003CD4287840064BD4287840075AD42878D8
:102E3000000769D42878C00740F08380386800F024
:102E40000700A04275D9386820F007002043386099
:102E5000FFF76EFD054600BF386800F00700A0428E
:102E600067D0FFF765FD401B02284FF0030088BFC5
:102E7000BDE8F081F0E7A86802F064FAFFF758FDBA
:102E8000064600BF02F028F90028C7D1FFF750FD21
:102E9000801B0228F6D90320BDE8F081686901F0A3
:102EA0005BFFFFF745FD064602F00EF90028B8D19A
:102EB000FFF73EFD801B0228F6D90320BDE8F08114
:102EC000A86902F033FAFFF733FD064602F01CF959
:102ED0000028A9D1FFF72CFD801B0228F6D903207A
:102EE000BDE8F081E86802F037FAFFF721FD0646F9
:102EF00002F0FAF800289AD1FFF71AFD801B022889
:102F0000F6D90320BDE8F0812869C00002F02EFA4E
:102F1000FFF70EFD064600BF02F0EEF800287FF432
:102F200089AFFFF705FD801B0228F5D90320BDE816
:102F3000F08103F057FBFFF731FDFFF745FDBDE8DA
:102F4000F081686848B1032823D0022826D102F016
:102F50006DF830B90120BDE8F08102F071F9002868
:102F6000F8D0686802F082FAFFF7E2FC064641F208
:102F7000883800BF02F024F86968B0EB810F3FF495
:102F80005DAFFFF7D5FC801B40454FF00300F1D942
:102F9000D5E702F0B3F90028E3D1DBE702F084F8CB
:102FA0000028DED1D6E7000010B500F037F804465F
:102FB00001F0DEFF3C2101EA900041F28461C0F69D
:102FC00002010858B4FBF0F010BD000010B5FFF787
:102FD000EBFF044601F0D4FF41F2C461C0F30220CC
:102FE000C0F6020151F8200000F01F0024FA00F0A2
:102FF00010BD000010B5FFF7D7FF044601F0C8FF71
:1030000041F2C461C0F3C220C0F6020151F82000B1
:1030100000F01F0024FA00F010BD0000B0B542F22D
:103020000044C0F2F40401F0CBFF08280ED00428BD
:1030300041D0B0B902F0FAF83C2101EA900041F227
:10304000E461C0F602010C582046B0BD01F0E8FF73
:1030500044F60001C0F2E811012818BF0C462046D2
:10306000B0BD02F033F9022815D0032809D101F0D0
:10307000D7FF44F60001C0F2E811012818BF0C4642
:1030800009E002F0D3F83C2101EA900041F2E4614A
:10309000C0F602010C5802F021F9444302F00EF987
:1030A000012505EB1010B4FBF0F402F01FF905EB5D
:1030B0005070B4FBF0F42046B0BD0000F0B581B014
:1030C000F0B104460078800664D501F079FF05462A
:1030D00002F0FCF8B5B10C2D08BF012812D0E06950
:1030E000E0B302F09BF8FFF723FC054602F0A8F8D6
:1030F000002844D1FFF71CFC401B0228F6D93BE016
:1031000001206AE202F09CF808B1E06918B3656A30
:1031100002F08CF80146606A8D4209D902F080FC09
:10312000C8B9606A02F09CF8206A02F08FF808E0E3
:1031300002F096F8206A02F089F8606A02F070FCEA
:1031400048B903F04FFA40F23C30C2F20000006888
:10315000FFF73AFCC8B10126002017E002F056F84C
:10316000FFF7E6FB054600BF02F06AF868B1FFF71B
:10317000DFFB401B0228F7D90326002006E0606A27
:1031800002F06EF8206A02F061F801200028304653
:1031900000F023822078C0071ED001F011FF054601
:1031A00002F094F8082D0DD00C2D08BF032809D08B
:1031B0006068B0F5A02F3DD0B0F5803F3FD101F061
:1031C0001FFF40E001F032FF08B1606868B30120E2
:1031D0000028304600F001822078800766D501F093
:1031E000EFFE054602F072F8042D14D00C2D08BF36
:1031F000022810D0E068002842D001F04DFFFFF710
:1032000097FB054601F050FF50B9FFF791FB401BBB
:103210000228F7D944E001F047FF08B1E06838B16F
:10322000206901F047FF01203CE001260020CFE7A4
:10323000012636E001F0ECFE01F0E2FE03E001F0D1
:10324000CFFE01F0D5FE6568FFF772FB002D054645
:1032500011D000BF01F0EAFE0028B8D1FFF768FBEB
:10326000401B6428F6D903260020B1E7FFF760FB76
:10327000401B6428F7D801F0D9FE0028F6D1A6E754
:1032800001F002FFFFF754FB054600BF01F00CFF01
:10329000002800F06F81FFF74BFB401B0328F5D39C
:1032A000032600200028304600F09781206810F0A7
:1032B000180F6CD0616999B110F0100020D101F0A5
:1032C00073FFFFF735FB054601F076FF00283CD180
:1032D000FFF72EFB401B02284FF00300F4D97CE1DE
:1032E00001F072FFFFF724FB054600BF01F07CFFF1
:1032F000D8B1FFF71DFB401B0328F7D903206CE171
:1033000001F05AFF002800F0A08001F065FFFFF7F0
:103310000FFB054601F068FF28BBFFF709FB401BC8
:1033200003284FF00300F5D957E101F035FFFFF70F
:10333000FFFA054601F040FF48B3FFF7F9FA401BDA
:1033400002284FF00300F5D947E101F03DFF00BF2F
:1033500001F04AFFD8B1FFF7EBFA401B03284FF00A
:103360000300F5D939E1A06901F046FF01F014FF2F
:10337000FFF7DEFA054600BF01F01EFF38B1FFF788
:10338000D7FA401B02284FF00300F5D925E1207839
:10339000400710D4207840062ED4E06A002800F0C0
:1033A0001B8101F00DFEE56A0C2839D1012D40F09A
:1033B0009B80012011E10C27C5F60007D7F8F40324
:1033C000C00511D4FFF7DEFBFFF7B2FA054600BFD8
:1033D000D7F8F403C00507D4FFF7AAFA401B022868
:1033E0004FF00300F4D9F8E0A068052851D0012877
:1033F00054D101F0A1FE55E0A06AC0B301F034FE43
:10340000FFF796FA054600BF01F036FE0028C4D14A
:10341000FFF78EFA401B02284FF00300F4D9DCE0DE
:1034200001F03CFF022D40F08980FFF781FA05464C
:1034300001F064FF002800F0A580FFF779FA401B37
:1034400002284FF00300F3D9C7E001F0ADFEFFF70B
:103450006FFA054601F0B0FE00287FF456AFFFF783
:1034600067FA401B02284FF00300F3D9B5E001F0E2
:10347000F3FDFFF75DFA054601F0FEFD00283FF47D
:103480008CAFFFF755FA401B02284FF00300F3D929
:10349000A3E001F059FE01F04FFE03E001F03CFE15
:1034A00001F042FEA568FFF743FA002D054641F200
:1034B000883714D001F058FE00287FF46BAFFFF777
:1034C00037FA401BB8424FF00300F3D985E000BF44
:1034D000FFF72EFA401BB8424FF003007DD801F0F1
:1034E00043FE0028F4D155E70C20C5F60000016822
:1034F000206B01F0030282423ED1606B01F070024A
:10350000824239D1C1F30620A26B904234D1E06BE4
:1035100001F4781282422FD1206C01F06062824265
:103520004FF0010029D1626C01F06041891AB1FAB3
:1035300081F14FEA511108BF30461FE00C20C5F65B
:10354000000001684FF6FF7221F00301016001687D
:10355000CEF6FE6211400160FFF7EAF9044601F081
:10356000CDFEC8B3FFF7E4F9001B02284FF00300BB
:10357000F5D932E0012095E601200021002918BF8D
:1035800000202AE00C25C5F60005286848F28C01C9
:10359000C1F2C11104F1300708408ECFD4E91064A4
:1035A0000843104340EA0320384330432043286057
:1035B00001F07CFE286840F080502860FFF7B8F9E1
:1035C000044601F09BFE38B9FFF7B2F9001B022850
:1035D0004FF00300F5D900E00020C0B201B0F0BD0B
:1035E000002804BF0120704710B5044690F83D0044
:1035F00028B9002084F83C00204600F00DF8022095
:1036000084F83D002068211D03F07AF8012084F839
:103610003D00002010BD0000704700000146022060
:1036200081F83D00086807238268C0F201031A4050
:10363000062A06D0B2F5803F03D0026842F00102AC
:1036400002600122002081F83D20704710B5044639
:103650000068012203F098F8206842F60041C4F2A5
:10366000010188420BD044F60001C4F201018842F6
:1036700005D044F20041C4F20101884203D1416CFB
:1036800041F40041416481680722C0F20102114007
:10369000062902D0B1F5803F01D1002010BD01689C
:1036A00041F001010160002010BD000090F87C1085
:1036B000012904BF0220704701680A6822F0020253
:1036C0000A60002180F87C100846704790F87C1052
:1036D000012904BF0220704701680A6842F0020213
:1036E0000A60002180F87C100846704710B5B0B120
:1036F0000446D0F8800028B9002084F87C002046D9
:1037000000F026F82420C4F880002068016821F029
:1037100001010160204603F079FA012801D101205E
:1037200010BDA06A10B1204603F0C6F920684168B8
:1037300021F490414160816821F02A018160016893
:1037400041F001010160204603F02AFA10BD00009B
:103750007047000080B540F29C40C2F20000006853
:10376000804780BD80B5202001F09AFAFFF7F2FF74
:1037700080BD000080B500F00BF8012001F08AFA4E
:1037800080BD000080B5012001F0A8FA80BD0000D6
:1037900070B582B048F66810C2F2030001F046FF2F
:1037A000A0B948F6681440F2A046C2F2030401AD85
:1037B000C2F200062046294601F046FF3168019812
:1037C0008847204601F032FF0028F3D002B070BDD8
:1037D00080B5202001F0A2FA202001F089FA80BDF6
:1037E00080B5012001F09AFA80BD000080B501F09B
:1037F0009DFA01F0D9FA40BF20BF01F069FB80BDFE
:1038000080B501F0C7F901F055FA01F05DFA2C20FE
:10381000FFF778F92D20FFF775F980BD80B50820F6
:1038200001F03EFA40F2A440C2F200000068804776
:10383000082001F073FA80BD10B50446082001F09D
:1038400061FA40B140F2A440C2F2000004600820D6
:1038500001F04EFA10BDA047082001F05FFA10BD3C
:1038600010B540F604440220C5F6000401F068FAE1
:1038700028B12068800702D400F02EF810BD012086
:1038800001F05EFA28B12068C00702D1FFF772FF8D
:1038900010BD082001F054FA002808BF10BD2068B0
:1038A000000758BF00F04EF810BD000080B50220A0
:1038B00001F0F6F900F002F880BD000080B540F29A
:1038C0004C50C2F20000016840F20000C2F2030056
:1038D000C0680068884780BD80B500F005F8022008
:1038E00001F0D8F980BD000070B582B048F68010B4
:1038F000C2F2030001F09AFEA0B948F6801440F22B
:103900005056C2F2030401ADC2F200062046294619
:1039100001F09AFE316801988847204601F086FE42
:103920000028F3D002B070BD80B5022001F0D6F9B6
:1039300080BD000080B5022001F0F0F9022001F006
:10394000D7F980BD80B500F005F8082001F0A2F994
:1039500080BD0000B0B582B040F2BC10C2F20300DE
:1039600001F064FE68B940F2BC14C2F2030401AD78
:103970002046294601F068FE204601F057FE002847
:10398000F6D002B0B0BD000010B540F604440220ED
:10399000C5F6000401F0B6F910B92068800306D519
:1039A000022001F0AFF928B92068800302D4FFF7A4
:1039B0007DFF10BD082001F0A5F928B9206800039B
:1039C00002D4FFF72BFF10BD202001F09BF9002847
:1039D00018BF10BD2068800258BFFFF7C3FE10BD9E
:1039E00042F64862C2F20002C2E9040170470000D8
:1039F00070B582B039B1887801283DD1084615F0FC
:103A000061F902B070BDC00736D042F64864C2F218
:103A100000040DF10701204603F012FD60B30646D5
:103A20000DF1070509E000BF304603F01FFD2046F9
:103A3000294603F005FD0646F0B19DF8070002286F
:103A40000CD0042812D1304616F02AFB94F821003D
:103A50000028E9D0304615F051FBE5E7304615F077
:103A600033F90028E3D0216904E000BFA1690029EF
:103A7000DAD030468847DAE702B070BD80B542F64A
:103A80008860C2F200000021C0E91C116FF01B0128
:103A90004FF6FF7243181C3138299A85FAD14FF03E
:103AA000FF31C0E91511C1651B21A0F87C1040F25F
:103AB0000511A0F880100021C0F8A01015F064FADC
:103AC00080BD0000B0B50C46054640F2064003211B
:103AD00015F0A2F8002808BFB0BD290AC570017111
:103AE000447115F0C9F8B0BD42F64861C2F2000158
:103AF0008860704742F68860C2F200006830704704
:103B000042F68860C2F20000B0F87E007047000004
:103B100042F68860C2F20000D0E92201704700003E
:103B200042F68860C2F20000B0F8920070470000D0
:103B300042F68860C2F20000B0F87C0070470000D6
:103B400080B5FFF755FF80BD80B542F64861C2F2EF
:103B5000000181F820000020C1E90000FFF78EFF7E
:103B600080BD00002DE9F0418846074642F227005B
:103B700027211C46164615F04FF8002808BFBDE85F
:103B8000F081054604304146EF70FEF763F8306877
:103B90007168F268B368C5F81620C5F81230C5F828
:103BA0000E10C5F80A0020686168A268E368C5F8CD
:103BB0001A002846C5F81E10C5F82220C5F8263080
:103BC00015F05AF8BDE8F08180B542F23D000021C1
:103BD00015F022F8002818BF15F04EF880BD00003F
:103BE00080B542F22900002115F016F8002818BF10
:103BF00015F042F880BD0000B0B50C46054642F213
:103C000013000E2115F008F8002808BFB0BDA0F879
:103C100003502178417161788171A178C171E17897
:103C200001722179417261798172A179C172E17960
:103C30000173217A4173617A8173A17AC173E17A48
:103C4000017415F019F8B0BD80B542F20E000021E4
:103C500014F0E2FF002818BF15F00EF880BD000038
:103C60002DE9F0470F46054642F20D00192198460E
:103C7000914614F0D1FF002808BFBDE8F087044644
:103C8000C570280ADDE9081A2071380A0A9EA07159
:103C900004F10900677184F8079084F80880FDF743
:103CA000D9FF84F80FA03078207470786074B078F1
:103CB000A074F078E0743079207570796075B0790F
:103CC000A075F079E075307A2076707A6076B07AF7
:103CD000A076F07AE076204614F0CEFFBDE8F087BB
:103CE000B0B50C46054642F21700202114F094FFAF
:103CF000002808BFB0BD29686A68EB68AD68C0F8E5
:103D00000F30C0F80B50C0F80720C0F8031021682E
:103D10006268A368E568C0F81310C0F81720C0F8FF
:103D20001B30C0F81F5014F0A7FFB0BD2DE9F047BD
:103D30000746007A144688460026002120FA01F240
:103D4000D20718BF0136062904D8F2B2042A01F1BD
:103D50000101F3D35FFA86F94FEA091000F10A0175
:103D600042F2430014F058FF002808BFBDE8F08776
:103D7000824638788AF8030078788AF80400B878A0
:103D80008AF8050079680AF10600FDF763FF387AC2
:103D900031068AF80C0034D04FEA490151FA86F115
:103DA000AAF103004FEA810CA21DA8F1020300272B
:103DB0009E78E51900F8106FDE78467013F8046FEE
:103DC00086705E78C670E65D06716E784671AE7874
:103DD0008671EE78C671D61916F8021C017216F8B3
:103DE000011C4172D15D0C3781727178BC45C17282
:103DF000297A0173697A4173A97A8173E97AC17367
:103E0000D6D1504614F038FFBDE8F087F0B581B048
:103E10000E46074642F2420006211C46154614F0A3
:103E2000FBFE48B1290A8171210AC77006714571EC
:103E3000C471017214F020FF01B0F0BD70B50C46E2
:103E4000064642F22600402114F0E6FE002808BF94
:103E500070BD0546033031462022FCF714FF05F102
:103E6000230021462022FCF70EFF284614F004FF11
:103E700070BD000010B5044642F21B00022114F090
:103E8000CBFE002808BF10BDA0F8034014F0F4FEDC
:103E900010BD0000B0B50C46054642F21A001221D2
:103EA00014F0BAFE002808BFB0BDA0F80350216886
:103EB0006268A368E568C0F80510C0F80920C0F87A
:103EC0000D30C0F8115014F0D7FEB0BD80B542F2ED
:103ED0004500002114F0A0FE002818BF14F0CCFE0D
:103EE00080BD00002DE9F04F81B00F46054642F23B
:103EF00044000E219846164614F08EFED0B10446BA
:103F0000DDF83090DDE90ABAC57007710630414628
:103F10006671FDF79FFE4FEA1B2060734FEA1A207F
:103F2000E073204684F80CB084F80EA084F810905A
:103F300014F0A2FE01B0BDE8F08F000010B50446F9
:103F400042F24600022114F067FE002808BF10BDAF
:103F5000A0F8034014F090FE10BD000080B542F2BE
:103F60001800002114F058FE002818BF14F084FE39
:103F700080BD000080B542F20200002114F04CFE2A
:103F8000002818BF14F078FE80BD000080B542F212
:103F90000300002114F040FE002818BF14F06CFE4E
:103FA00080BD000080B542F23A00002114F034FEDA
:103FB000002818BF14F060FE80BD000080B542F2FA
:103FC0002F00002114F028FE002818BF14F054FE22
:103FD00080BD000080B542F23B00002114F01CFEC1
:103FE000002818BF14F048FE80BD000080B542F2E2
:103FF0004A00002114F010FE002818BF14F03CFE07
:1040000080BD000080B542F22A00002114F004FEB9
:10401000002818BF14F030FE80BD000080B542F2C9
:104020001C00002114F0F8FD002818BF14F024FE35
:1040300080BD000080B542F20F00002114F0ECFDBD
:10404000002818BF14F018FE80BD0000B0B50C4663
:10405000054642F22100032114F0DEFD002808BFCE
:10406000B0BD290AC5700171447114F005FEB0BDE0
:10407000F0B581B00E46074642F220000E211C46E4
:10408000154614F0C9FDC8B1C7703F0A0899DDE9AB
:1040900006320771370A87712F0A0772270AC3721F
:1040A0001B0A4273120AC173090A4671C571447230
:1040B000877203738273017414F0DEFD01B0F0BDEA
:1040C00010B5044642F23C00012114F0A5FD002881
:1040D00008BF10BDC47014F0CFFD10BD70B50C4604
:1040E000054642F22800072114F096FD002808BF7B
:1040F00070BD064604302146F570FDF7ABFD304635
:1041000014F0BAFD70BD000010B5044642F26D0017
:10411000022114F081FD002808BF10BDA0F8034063
:1041200014F0AAFD10BD000010B5044642F22D00A7
:10413000012114F071FD002808BF10BDC47014F0F7
:104140009BFD10BDF0B581B00E46044642F208005A
:10415000202114F061FD78B1071D0546C470384672
:1041600031462246FCF78FFD3819C4F11F01FCF7D8
:1041700009FE284614F080FD01B0F0BD10B50446DC
:1041800042F20A00012114F047FD002808BF10BDCB
:10419000C47014F071FD10BD2DE9F0470F460546BF
:1041A00042F206000F219846164614F035FD00280D
:1041B00008BFBDE8F0870446DDE90821C570280A7C
:1041C000DDE90AA92071380AA07104F10A006771BB
:1041D000E67184F80880627221B1FDF73BFD04F1BD
:1041E000100001E0FDF728FD80F800A080F80190A4
:1041F000204614F041FDBDE8F087000070B50C4684
:10420000054642F23500072114F006FD002808BFDC
:1042100070BD064604302146F570FDF71BFD3046A3
:1042200014F02AFD70BD000070B50D46064642F23E
:1042300022000621144614F0EFFC002808BF70BDD0
:10424000310A0171290A8171210AC6704571C47150
:10425000017214F011FD70BD10B5044642F2010068
:10426000082114F0D9FC002808BF10BD616822683D
:10427000C0F80710C0F8032014F0FEFC10BD0000C9
:104280002DE9F0411C460E460746FB2B03F10401C5
:1042900042F23700904628BF6FF00404FF2928BF80
:1042A000FF2114F0B9FC002808BFBDE8F081069991
:1042B0000546E2B2C770067180F805800730AC7120
:1042C000FCF7E1FC284614F0D7FCBDE8F0810000C3
:1042D00070B5064688000C46811C42F2390015462E
:1042E00014F09AFC002808BF70BDC67004716CB150
:1042F000A91F421C11F8063F013C02F8043F8B78CD
:104300005370CB7893700B79D370F3D114F0B4FC65
:1043100070BD000070B50C46064642F23600192109
:1043200014F07AFC002808BF70BDC67005462078DE
:104330002871607868716068A8716068000AE87127
:10434000E0882872A0686872A068000AA872608974
:10435000E872207B2873607B6873A07BA873216957
:1043600005F10F00FDF776FC207D6875607DA8756E
:10437000A07DE875E07D2876207E6876607EA87650
:10438000A07EE876284614F077FC70BD2DE9F04356
:1043900081B098461546894607460026002000BF92
:1043A00025FA00F1C90718BF0136062804D8F1B272
:1043B000042900F10100F3D3F4B2A00050FA86F012
:1043C000C11C42F2410014F027FCC8B13106C7708D
:1043D00080F80490457111D0A8F10601421C00BF7D
:1043E0008B7A013C02F8053F11F8063F53704B7879
:1043F00093708B78D370CB781371F1D114F03CFCAF
:1044000001B0BDE8F08300002DE9F0411C460E46E6
:104410000746FB2B03F1040142F23800904628BF07
:104420006FF00404FF2928BFFF2114F0F5FB0028DA
:1044300008BFBDE8F08106990546E2B2C770067173
:1044400080F805800730AC71FCF71DFC284614F09D
:1044500013FCBDE8F08100002DE9F04115460E4641
:104460000746FC2A02F1030142F23F00984628BFAA
:104470006FF00305FF2928BFFF2114F0CDFB0028B2
:1044800008BFBDE8F0810446EAB2C7700671063085
:1044900041466571FCF7F7FB204614F0EDFBBDE8E3
:1044A000F0810000B0B50C4605464FF401500221E2
:1044B00014F0B2FB002808BFB0BDC570047114F041
:1044C000DBFBB0BDF0B581B00E46074642F23E00C0
:1044D00007211C46154614F09FFB58B1310A417163
:1044E000290AC171210AC77006718571047241726F
:1044F00014F0C2FB01B0F0BDF0B581B00D46074627
:1045000042F24E000821144614F086FB48B10646DC
:1045100004302946F770FDF79DFB3046B47214F065
:10452000ABFB01B0F0BD0000B0B5044642F205009F
:10453000062114F071FB002808BFB0BD054603300A
:104540002146FDF787FB284614F096FBB0BD00001E
:10455000B0B50C46054642F20C00022114F05CFB9B
:10456000002808BFB0BDC570047114F085FBB0BD54
:10457000F0B581B00E46074642F20B0007211C46FB
:10458000154614F049FB58B10699320A42712A0ABD
:10459000C77006718571C2710472417214F06CFBB0
:1045A00001B0F0BDF0B581B00E46044642F20900FC
:1045B000202114F031FB78B1071D0546C470384640
:1045C00031462246FCF75FFB3819C4F11F01FCF7A6
:1045D000D9FB284614F050FB01B0F0BDF0B581B016
:1045E0000E46074642F219001C211C46154614F0DF
:1045F00013FBC0B1A0F8037071683268C0F80910ED
:10460000290AC0F805204573817321686268A36890
:10461000E768C0F80F10C0F81320C0F81730C0F8D2
:104620001B7014F029FB01B0F0BD0000B0B50C46C2
:10463000054642F22400042114F0EEFA002808BFD7
:10464000B0BD290A0171210AC5704471817114F04D
:1046500013FBB0BD80B541F20900002114F0DCFA73
:10466000002818BF14F008FB80BD000080B541F29F
:104670000100002114F0D0FA002818BF14F0FCFA51
:1046800080BD000010B5044641F20540022114F03F
:10469000C3FA002808BF10BDA0F8034014F0ECFADC
:1046A00010BD000080B542F66C60C2F2000001212E
:1046B000817640F60340002114F0AEFA002818BFBE
:1046C00014F0DAFA80BD000080B542F64860C2F20C
:1046D0000000012180F8211014F014FD80BD0000BD
:1046E00042F64861C2F20001C86070472DE9F0430C
:1046F00081B0B0F8008006464488404614F0C8FBFC
:1047000098B142F68869C2F2000909F170070546BE
:10471000384602F0EDFE60B199F8820048B1A1B2CE
:104720002846324614F04EFD08E0304602F09EFE68
:1047300017E038460021324602F08EFE4FF0FF307F
:1047400010FA84F4FFF7DCF994FBF0F0297E0844BA
:10475000013099F88010C2B28A42287601D3E87DF0
:1047600010B101B0BDE8F08342F64861C2F2000129
:1047700001204A69E87540460121904701B0BDE833
:10478000F083000010B5044640F60140082114F003
:1047900043FA002808BF10BD61682268C0F80710FE
:1047A000C0F8032014F068FA10BD000010B50446EC
:1047B00040F66340082114F02FFA002808BF10BD0E
:1047C00061682268C0F80710C0F8032014F054FA9A
:1047D00010BD000040F2682CC2F2000C32B1DCE9DE
:1047E000003211431843CCE900017047DCE9002393
:1047F00023EA010122EA0000CCE900017047000031
:1048000042F68861C2F20001A1F87C007047000006
:1048100070B514460D4614F0FFF9002808BF70BDAE
:104820000646033021462A46FCF72DFA304614F09E
:1048300023FA70BD42F6886048F61971C2F2000092
:10484000C0F60101C0F8A0107047000042F6886071
:10485000C2F200000021C0F8A0107047B0B50C46AD
:10486000054640F67C40042114F0D6F9002808BF24
:10487000B0BD290A0171210AC5704471817114F01B
:10488000FBF9B0BDEFF3108000281CBF012070477A
:10489000EFF31180002818BF01207047EFF310805C
:1048A00000281CBF01207047EFF31180002818BFBB
:1048B00001207047EFF3108000281CBF01207047D3
:1048C000EFF31180002818BF01207047EFF310802C
:1048D00000281CBF01207047EFF31180002818BF8B
:1048E00001207047EFF3108000281CBF01207047A3
:1048F000EFF31180002818BF01207047EFF31080FC
:1049000000281CBF01207047EFF31180002818BF5A
:1049100001207047EFF30580002818BF0120704781
:10492000EFF30580002818BF01207047EFF30580E2
:10493000002818BF01207047EFF30580002818BF3A
:1049400001207047EFF30580002818BF0120704751
:10495000EFF30580002818BF01207047EFF31480A3
:10496000012121EA00007047B0B500F0EBFE40F2F3
:104970007824C2F2000401256572BFF34F8FFDF762
:10498000C1FF002808BFB0BDFDF79CF9A572B0BDFE
:1049900080B540F27820C2F2000000214172BFF3DE
:1049A0004F8F827A12B1817201F062FA00F0D4FE68
:1049B00080BD000080B51970090A5970111D9970E9
:1049C000090A9871000AD970110AD87118461A712B
:1049D0005971FFF78BFE80BD2DE9F0410D4604466D
:1049E000FDF776FA002840D042F684760138C2F20C
:1049F000000637184FF0120830461E2187F8118044
:104A000002F062FE1420B48016F0F4F8002808BF0B
:104A1000BDE8F081034680F8088042F65C70C2F27F
:104A2000000090F82410597290F824103975013163
:104A3000CAB28A4218BF012280F824200820588177
:104A400028782146187368780C225873A8789873D0
:104A5000E878D8732879187468795874A8799874A4
:104A6000E879D8740520FFF7A5FFBDE8F0810000C4
:104A700070B506460E2015460C4616F0BBF8002809
:104A800008BF70BD03461320187202205881280AFF
:104A900058730520214606225E721D73FFF78AFFB8
:104AA00070BD000080B542F65C704AF69121C2F2FA
:104AB0000000C0F601014AF601424AF68D23C0E922
:104AC00000114AF69521C0F60102C0F60103C0F6B6
:104AD0000101C0E90223C0E904330162012180F829
:104AE00024104AF699204AF62531C0F60100C0F696
:104AF0000101FEF775FF80BD42F65C704AF6613138
:104B0000C2F20000C0F601018161704742F65C7C90
:104B1000C2F2000C10230428604608BF0C2318BF03
:104B2000043001604CF803207047000080B531B1BB
:104B30008878012818BF80BD084616F09BF880BD14
:104B400042F68471C2F2000101228A71087308746E
:104B50007047000042F65C704AF68141C2F20000E4
:104B6000C0F60101C16142F68470C2F2000000216A
:104B7000818281757047000081B04C21C5F600012B
:104B80000A6802430A60096808400090009801B072
:104B90007047000081B05020C5F60000016841F464
:104BA00080110160006800F480100090009801B04E
:104BB0007047000081B05020C5F60000016841F444
:104BC00000210160006800F400200090009801B00E
:104BD0007047000081B05820C5F60000016841F020
:104BE00000410160006800F000400090009801B0B2
:104BF000704700003820C5F60000016841F0004110
:104C0000016070473820C5F60000016821F00041BE
:104C10000160704781B05C20C5F60000016841F07A
:104C200001010160006800F001000090009801B0EF
:104C30007047000081B06020C5F60000016841F4B3
:104C400080410160006800F480400090009801B04D
:104C50007047000081B06020C5F60000016841F493
:104C600000310160006800F400300090009801B04D
:104C7000704700004020C5F60000016841F4003193
:104C8000016070474020C5F60000016821F4003142
:104C90000160704740F60841C5F6000108607047A2
:104CA00040F60441C5F600010A6842EA0040086087
:104CB0007047000040F60040C5F60000016841F072
:104CC000010101607047000040F60040C5F6000099
:104CD000016841F4803101607047000040F60441F2
:104CE000C5F600010A6822EA00000860704700006B
:104CF00040F60441C5F600010A6822EA0040086057
:104D00007047000040F60C41C5F6000109680140FB
:104D1000081AB0FA80F040097047000040F60841D8
:104D20000004C5F6000108607047000040F6D4009A
:104D3000C5F60000016841F4007101607047000091
:104D400040F61C41C5F6000109680140081AB0FA96
:104D500080F040097047000040F20811C5F60001DC
:104D60000A6822F0F00210430860704742F2040023
:104D7000CEF20400016841F00101016070470000BB
:104D800042F20400CEF20400016841F00401016027
:104D90007047000042F20400CEF20400016841F0C6
:104DA000020101607047000040F62000C5F60000D7
:104DB000016841F4007101607047000091FAA1F1AF
:104DC000B1FA81F10068490003228A401040C840CE
:104DD0007047000091FAA1F1B1FA81F1D0F820C03A
:104DE00089000F238B402CEA030302FA01F11943D7
:104DF00001627047090A91FAA1F1B1FA81F1D0F884
:104E000024C089000F238B402CEA030302FA01F12E
:104E1000194341627047000091FAA1F1B1FA81F1A2
:104E2000D0F800C0490003238B402CEA030302FAA8
:104E300001F119430160704791FAA1F1B1FA81F1D2
:104E4000D0F800C0490003238B402CEA030302FA88
:104E500001F119430160704743688B435143194383
:104E60004160704791FAA1F1B1FA81F1D0F80CC01C
:104E7000490003238B402CEA030302FA01F1194392
:104E8000C160704791FAA1F1B1FA81F1D0F808C080
:104E9000490003238B402CEA030302FA01F1194372
:104EA0008160704741F28041C5F6000151F8200051
:104EB00040F20041C8F20001401A18BF01207047BB
:104EC00041F20C40C5F600004FF48061016070476C
:104ED00040F20C40C5F60000016841F40041016059
:104EE0007047000040F20040C5F600000068C0F3C3
:104EF0008030704781B047F25850C1F6FF700068AB
:104F0000C0F3032000900098002840F21C40C5F632
:104F100000000BD0009A911E112AC8BF0F21022A4F
:104F20000268B8BF002122F00F0203E001680422EA
:104F300021F00F011143016001B0704740F21C40A5
:104F4000C5F60000016821F07001016070470000A3
:104F50009020C5F60000016841F48031016070477F
:104F600040F20810C5F6000000680001C0B27047AA
:104F70000820C5F60000006800F0F000704700004F
:104F80000820C5F60000006800F4E06070470000EB
:104F90000820C5F60000006800F46050704700006B
:104FA0008820C5F60000006800F4406070470000EB
:104FB0009020C5F60000006800F4407070470000C3
:104FC0000820C5F60000006800F00C0070470000E3
:104FD0008820C5F60000006800F00300704700005C
:104FE0004FF0B040016821F480310160704700004B
:104FF0004FF0B040016821F480210160704700004B
:105000004FF0B040016841F480310160704700000A
:105010004FF0B040016841F480210160704700000A
:105020004FF0B0400068C0F3005070474FF0B04000
:105030000068C0F3404070479C214CF6FE22C5F644
:105040000001CCF6FE220A600A6822F47C5242EA91
:1050500000200860704700009820C5F60000016835
:1050600021F00101016070479820C5F60000016839
:1050700041F00101016070479820C5F6000000680A
:10508000C0F34000704700004FF0B040016821F4C9
:1050900080710160704700004FF0B040016841F43A
:1050A00080710160704700004FF0B0400068C0F3AD
:1050B000802070470421C5F600010A6822F0FE42F4
:1050C00042EA00600860704740F20810C5F6000030
:1050D0000068C0F3404070470820C5F60000006833
:1050E000C0F30040704700000820C5F600000068CB
:1050F000C0F34040704700000820C5F6000000687B
:10510000C0F380407047000040F20810C5F6000070
:105110000068C0F3004070479020C5F600000168A9
:1051200021F00101016070479020C5F60000016880
:1051300021F00401016070479020C5F6000001686D
:1051400041F00101016070479020C5F60000016840
:1051500041F00401016070479020C5F6000000682E
:1051600000F00100704700009020C5F600000068C4
:10517000C0F34000704700009020C5F600000068B2
:10518000C0F34000704700009020C5F600000168A1
:1051900021F01801016070479420C5F600000168F5
:1051A00021F00101016070479420C5F600000168FC
:1051B00041F00101016070479420C5F600000068CD
:1051C000C0F34000704700009420C5F6000001685D
:1051D00021F00401016070479420C5F600000168C9
:1051E00041F00401016070479420C5F6000000689A
:1051F000C0F3C000704700009421C5F600010A68A2
:1052000022F4706242EA0020086070474FF0B0401C
:10521000016821F001010160704700004FF0B040CB
:10522000016841F001010160704700004FF0B0409B
:10523000006800F0F000B02828BFB02070470000E0
:105240004FF0B0400068C0F3400070470421C5F63D
:1052500000010A6822F47F4242EA00200860704799
:105260004FF0B0410A6822F0F00210430860704726
:105270004FF0B040016821F080610160704700008C
:105280004FF0B040016841F080610160704700005C
:105290004FF0B0400068C0F3C06070474FF0B040BE
:1052A000016821F080710160704700004FF0B0404C
:1052B000016841F080710160704700000C20C5F664
:1052C0000000006800F07000704700000C20C5F678
:1052D0000000006800F00300704700000C20C5F6D5
:1052E00000000068C0F30620704700000C20C5F6DF
:1052F0000000006800F06040704700004FF0B040D0
:105300000068C0F3406070479020C5F60000016857
:1053100021F48031016070478821C5F600010A68D8
:1053200022F04052104308607047000040F208111C
:10533000C5F600010A6822F00F0242EA1010086068
:10534000704700000821C5F600010A6822F0F0024B
:1053500010430860704700000821C5F600010A6884
:1053600022F4E06210430860704700000821C5F68F
:1053700000010A6822F46052104308607047000080
:105380008821C5F600010A6822F0406210430860D7
:10539000704700000820C5F60000016841F4004194
:1053A000016070478821C5F600010A686FF47F2309
:1053B00063EA10131A4000F47F4042EA00100860CC
:1053C000704700008821C5F600010A684FF6FF7398
:1053D00063EA00031A4042EA004008607047000098
:1053E0008821C5F600010A6822F440621043086073
:1053F000704700009421C5F600010A6822F440427B
:1054000010430860704700008821C5F600010A6853
:1054100022F0404210430860704700009021C5F61A
:1054200000010A6822F440721043086070470000CF
:105430008821C5F600010A6822F440021043086082
:10544000704700002421C5F600010A6822F003021B
:1054500010430860704700002421C5F600010A6867
:1054600022F0300210430860704700000821C5F6A2
:1054700000010A6822F00302104308607047000030
:105480008821C5F600010A6822F003021043086073
:105490007047000080B5FFF773FF80BD416941F0A0
:1054A0000201416170470000F0B581B010F0D0F802
:1054B00043F23000C2F20000017840F2B444C2F27C
:1054C000000431B10021017020680121416015F014
:1054D0002DFD20680168C9071CBF81685FEAC171A2
:1054E0000BD120680168090744BF81685FEA017138
:1054F00008D410F0EFF801B0F0BD0121416015F0C3
:1055000015FDEEE70821416043F23100C2F20000D0
:10551000012143F654340170C2F20004207818B11E
:1055200018F03CFA0020207043F23804C2F2000464
:1055300020780028DDD043F6C025C2F20005287887
:1055400090B143F23406C2F20006376815F0FEFC53
:10555000063080B287421ED930684FF6FA7108448F
:1055600080B215F0FDFC18E042F64465C2F2000579
:10557000287840B143F23400C2F20000066815F00A
:10558000E5FC864207D943F23400C2F2000000680D
:1055900015F0E6FC03E015F001FC00202870002067
:1055A0002070A6E780B540F25012C2F200021268E5
:1055B00041F25973CDF2B713A2FB0323D0F800C018
:1055C0004FF618409A0BCFF6FF7002FB00F3002253
:1055D00013F1010E28BF0322DCF80000013303D0D1
:1055E000084088427346F3D1D0B280BDC0E90000C4
:1055F00070470000EFF31082EFF3108372B6036878
:1056000048600B6001600B68596082F31088704736
:10561000EFF31082EFF3108372B6436808604B60BB
:1056200041604B68196082F310887047EFF3108176
:10563000EFF3108272B6026881F31088101AB0FA84
:1056400080F040097047000010B5EFF31084EFF3CD
:10565000108272B602680A60006800F003F884F3F2
:10566000108810BDEFF31081EFF3108272B6D0E90D
:1056700000231A600068436081F3108870470000BF
:10568000084470477047000010B5044628300DF0FC
:105690008FF858B1E46A4CB1A01C0DF003F918B1B1
:1056A000A468002CF8D10024204610BD0024204618
:1056B00010BD000010B584465CF8303F5BB191F836
:1056C00003E0DA7872450BD21A465B686BB1DC787E
:1056D0007445F9D305E00022C1E90122C1620DE061
:1056E0000022C1E90132083303E0C1E9013200F1CF
:1056F0002C031960002A18BF02F1040C2830CCF8E2
:1057000000100DF09DF810BDD1E9012C02F1080345
:10571000002A08BF00F12C03C3F800C0D1E9011230
:10572000131D002A08BF00F1300319607047000004
:1057300080B540F23870C2F2000000680AF04EFFF7
:1057400080BD000080B540F23870C2F200000068F1
:105750000AF076FE80BD000080B50AF06FFD0AF009
:105760005FFE80BD80B50AF01BFF80BDB0B5B0F50F
:105770007A7F15D10D460AF013FF044602F0E2F9D4
:105780002046294602F08AF9204602F073F9A84221
:105790000ED1002C02D4204602F05CF90020B0BDEE
:1057A00043F2FA2106A0C0F60201322215F088FC6D
:1057B00043F2FA2106A0C0F602013F2215F080FC58
:1057C00066726571203D3D203130303000000000B0
:1057D00068616E646C6572203D3D202849525148D5
:1057E000616E646C65725F74294E5649435F47650C
:1057F00074566563746F7228697271290000000025
:1058000047F2000CC1F6FF7C0CF57E73DA799C45FB
:10581000A3F1080102D082420B46F7D1083182423F
:1058200018BF002108467047F0B581B00446FFF765
:105830001FFDFDF77DF80546FFF72AFD38B1FDF79E
:1058400077F8401B0328F7D3032535BB01E000257B
:105850001DBB1027C5F600073868D4E9001220F4F4
:10586000FE4040EA01203860386820F47810104388
:105870003860FFF705FDFDF75BF80646FFF708FD0A
:10588000012805D0FDF754F8801B0328F6D3032523
:105890001DB92069396808433860284601B0F0BD59
:1058A000F0B581B00446FFF7E3FCFDF741F805468B
:1058B000FFF7EEFC38B1FDF73BF8401B0328F7D3A8
:1058C000032535BB01E000251DBB1027C5F60007E9
:1058D0003868216820F4FE4040EA0120A268386060
:1058E000386820F0606010433860FFF7C9FCFDF7AE
:1058F0001FF80646FFF7CCFC012805D0FDF718F885
:10590000801B0328F6D303251DB920693968084395
:105910003860284601B0F0BDF0B581B00446FFF70D
:10592000A7FCFDF705F80546FFF7B2FC38B1FCF718
:10593000FFFF401B0328F7D3032535BB01E00025FB
:105940001DBB1027C5F600073868216820F4FE400B
:1059500040EA0120E2683860386820F06040104377
:105960003860FFF78DFCFCF7E3FF0646FFF790FC7D
:10597000012805D0FCF7DCFF801B0328F6D30325A4
:105980001DB92069396808433860284601B0F0BD68
:1059900070B5B1F5007F09D100211DA252F8213068
:1059A00083420ED201310429F8D108E0002115A26A
:1059B00052F82130834204D201310329F8D1002565
:1059C00005E041F61860C0F6020050F8215044F29C
:1059D0000006C5F60006306820F007002843306056
:1059E000FCF7A6FF044600BF306800F00700A8429D
:1059F00006D0FCF79DFF001B0328F5D3032070BDE4
:105A0000002070BD060000000C0000001000000027
:105A100012000000240000003600000040000000DA
:105A2000B0B53C2441F2E46204EA9001C0F60202FF
:105A30001144B02888BF02F12C010D68FFF790FADD
:105A400041F2846104EA9000C0F6020108584DF664
:105A50008361B5FBF0F0C4F21B31A0FB01018C0C9B
:105A6000FDF788F801462046FFF792FFB0BD000021
:105A700080B584B000F10C020DF101034FF66640D1
:105A8000212117F0E3FE9DF80F0004B080BD000057
:105A900010B544F23C01C5F6000109680022C2F2CB
:105AA000030261F38F02126801461369D2F814C031
:105AB0001C0E0C701C0C4C701C0A8C70DCB203F0B9
:105AC0000F0350680B719CFA8CF3D2F818E0C1F800
:105AD0000530030E92688B72030C000A0873100ED7
